:100000000C9446000C9463000C9463000C94630001
:100010000C9463000C9463000C9463000C946300D4
:100020000C9463000C9463000C9463000C946300C4
:100030000C9463000C9463000C9463000C946300B4
:100040000C9463000C9463000C9463000C946300A4
:100050000C9463000C9463000C9463000C94630094
:100060000C9463000C9463000602180245024B02D4
:1000700054025A0273029B01A9017F04E7047A0427
:1000800072046D04560449043C04900411241FBEFC
:10009000CFEFD8E0DEBFCDBF11E0A0E0B1E0E4ECEF
:1000A000FAE002C005900D92A230B107D9F721E025
:1000B000A2E0B1E001C01D92A636B207E1F70E94AE
:1000C00022040C9460050C9400002F923F924F92F2
:1000D0005F926F927F928F929F92AF92BF92CF92D8
:1000E000DF92EF92FF920F931F93CF93DF93CDB7E1
:1000F000DEB72A970FB6F894DEBF0FBECDBF9D8343
:100100008C8381E46E830E94280384E50E94280387
:100110006E81A62FB0E020E231EA47E050E00E9475
:1001200031056A837B83782E692E4B015C01BB0C01
:100130008808982C5401582C482C382C672B682B95
:10014000692B09F44BC0198280E090E0B0E0A0E098
:10015000F0E0E0E0212C912C8F839887F987EA87E3
:1001600021C02F8138854B2F5A2F69857A85822DA2
:10017000992DA1E00E943C052F833887B42FA52F2D
:1001800069877A87282E992E5A2F822D992DAA8039
:10019000BB80C72CD62CE52CF42C032D182D0E94E7
:1001A0004805E0F48091C00087FFDBCF2091C600B6
:1001B0008C819D81E9818E0F911DFC012083F98145
:1001C000FF5FF983F23068F2EC81FD8180818F342A
:1001D00041F681818B3429F681E001C080E02A96C6
:1001E0000FB6F894DEBF0FBECDBFDF91CF911F9148
:1001F0000F91FF90EF90DF90CF90BF90AF909F90C6
:100200008F907F906F905F904F903F902F900895C8
:1002100091FF1DC0259A90FF1DC0249A87FF1DC025
:10022000239A86FF1DC0209A85FF1DC0579A84FF20
:100230001DC0569A83FF1DC0559A82FF1DC0549A57
:1002400081FF1DC0539A80FD1DC0529808952598C6
:1002500090FDE3CF249887FDE3CF239886FDE3CF7D
:10026000209885FDE3CF579884FDE3CF569883FD12
:10027000E3CF559882FDE3CF549881FDE3CF5398A7
:1002800080FFE3CF529A089591FF1DC02D9A90FFF1
:100290001DC02C9A87FF1DC02B9A86FF1DC0289A6F
:1002A00085FF1DC05F9A84FF1DC05E9A83FF1DC03D
:1002B0005D9A82FF1DC05C9A81FF1DC05B9A80FD24
:1002C0001DC05A9808952D9890FDE3CF2C9887FD76
:1002D000E3CF2B9886FDE3CF289885FDE3CF5F9889
:1002E00084FDE3CF5E9883FDE3CF5D9882FDE3CF8D
:1002F0005C9881FDE3CF5B9880FFE3CF5A9A089525
:10030000DF92EF92FF920F931F93CF93DF9390E0D2
:10031000FC013197E930F10550F0C0E08C2FDF91FE
:10032000CF911F910F91FF90EF90DF900895EC5CBB
:10033000FF4F0C942B050E942F03C82F0E942F0300
:100340002C2F30E0A901582BCA010E944401C0E0C3
:10035000E5CF83B1B3B1F3B1D3B109B1C9B1A9B19B
:10036000E9B169B179B1B071807290E08B2BF8700E
:100370008F2B82959295907F9827807F98272D2F9D
:10038000217030E0002436952795079436952795FF
:100390000794322F202D822B932B007810E0159597
:1003A000079515950795802B912BC074D0E0D595B6
:1003B000C795D595C7958C2B9D2BA072B0E0B595B0
:1003C000A795B595A7958A2B9B2B2E2F207130E0F2
:1003D0003595279535952795822B932B262F2870B9
:1003E00030E03595279535952795822B932B72FB19
:1003F000442740F950E0EC01C42BD52B8C2F0E94F0
:1004000028038D2F0E942803C2E088CF0E942F036B
:100410000E940004EC01809100018111EFCFCE0118
:1004200096958795969587950E942803C1E076CF8B
:100430000E942F03D82E0E942F03C82F0E942F0343
:10044000D0E0D82B209709F469CFE12CF12C0DC016
:10045000802F0E942803812F0E9428034FEFE41A67
:10046000F40AEC16FD0609F459CF8D2D0E94000404
:100470008C01909100019111EBCFC8019695879561
:10048000969587950E942803E9CF0E942F030E942A
:10049000EC03C0E043CF0E942F03C82F882389F1CB
:1004A0000E94F403C0E03ACF0E942F038093000122
:1004B000C0E034CF0E942F03D82F0E942F03182FA3
:1004C0000E942F03C82FC1702D2F30E080FD1CC06B
:1004D000C901912B93702FB7F89490938900809362
:1004E00088002FBF1BCF0E942F03C82F0E942F030D
:1004F0002C2F30E0A901582BCA010E940801C0E04E
:100500000DCF0E94FA030ACFC901912B93702FB728
:10051000F89490938B0080938A002FBFC0E0FECEAA
:10052000CF92DF92EF92FF920F931F93CF93DF93BF
:1005300023B153B183B1F3B199B109B1C9B1E9B1F3
:1005400049B1A9B15071207230E0252B8870282B59
:1005500022953295307F3227207F3227F0FBEE2420
:10056000E0F8F12C0024F694E7940794F694E794CD
:100570000794FE2CE02C2E293F299078C92ED12CEF
:10058000D594C794D594C794C9018C299D2900742A
:1005900010E01595079515950795802B912BC07246
:1005A000D0E0D595C795D595C7958C2B9D2BE0713F
:1005B000F0E0F595E795F595E7958E2B9F2B487024
:1005C00050E05595479555954795842B952BA2FB63
:1005D000662760F970E0862B972BDF91CF911F91F2
:1005E0000F91FF90EF90DF90CF90089582EA809373
:1005F000800089E1809381008FB7F89420E034E097
:1006000030938700209386008FBF8FB7F8941092A5
:1006100089001092880010928B0010928A008FBF80
:1006200084B1866084B908959C0133709FB7F894B3
:1006300030938900209388009FBF08959C013370F8
:100640009FB7F89430938B0020938A009FBF089542
:100650009091C00095FFFCCF8093C60008958091D3
:10066000C00087FFFCCF8091C6000895611521EE80
:1006700072078105910509F487C008F1611524E826
:10068000720723E08207910509F472C008F451C093
:10069000603221EA720727E08207910571F1603428
:1006A00022E472072FE08207910509F470C06039D7
:1006B000704D83409105D1F18FEC90E020C0603403
:1006C00028E372078105910509F45BC008F441C075
:1006D000603820E772078105910529F1611526E947
:1006E00072078105910509F446C061157B448105B7
:1006F000910511F787E690E002C083E090E09093C7
:10070000C5008093C4008091C10088618093C100BE
:100710008091C20086608093C2008091C000826098
:100720008093C000089584E490E0E9CF87E090E0F2
:10073000E6CF61152CE2720721E08207910551F1A5
:100740006115724C8140910509F0B6CF80E190E0CF
:10075000D6CF603629E072078105910579F0603CBB
:1007600072418105910509F0A7CF80EA91E0C7CFDA
:1007700088E090E0C4CF83E390E0C1CF80E493E0D1
:10078000BECF8AE890E0BBCF82E290E0B8CF81E0B4
:1007900090E0B5CF89E190E0B2CFECE7F0E0908156
:1007A000807C9F73892B80830895ECE7F0E0808143
:1007B0008F7380648083EAE7F0E08081877D8083A7
:1007C0008081876080838FE380937E0010927B001E
:1007D0008081806880830895EAE7F0E090818770E7
:1007E000987F892B80830895EAE7F0E08081806814
:1007F00080830895EAE7F0E080818F778083089511
:1008000090917C0020917C00382F3F70207F232B1B
:1008100020937C0089278F7071F480917A00806426
:1008200080937A0080917A0086FDFCCF80917800D9
:1008300090917900089587E592E00197F1F700C063
:100840000000EBCF40E2F42EF4B860E271EA87E0FA
:1008500090E00E943603F5B80E94D5030E94F6028C
:100860000E942F0390E0FC013197E930F105C0F7B9
:10087000E35CFF4F0C942B050E942F03F82E0E947F
:100880002F032F2D30E0A901582BCA010E944401EB
:10089000E7CF0E942F03F82E0E942F032F2D30E068
:1008A000A901582BCA010E940801DACF0E942F0328
:1008B000F82E0E942F03E82E0E942F032F2D30E0E8
:1008C00080FDB6C0C9019E2993702FB7F89490930C
:1008D0008900809388002FBFC3CF0E942F0380938D
:1008E0000001BECF0E942F03882309F49EC00E94FE
:1008F000F403B6CF0E942F030E94EC03B1CF0E94F5
:100900002F030E9400047C0180910001882309F4D8
:100910009AC08E2D0E9428038F2D0E942803A0CFFD
:1009200023B173B153B1F3B199B1A9B1E9B149B1EF
:1009300089B169B17071207230E0272B5870252B76
:1009400022953295307F3227207F3227F170CF2FCA
:1009500050E0D52F7E010024F694E7940794F69496
:10096000E7940794FE2CE02C2E293F299078C92E7D
:10097000D12C7601F594E794F594E794E22AF32AD2
:10098000A074B0E0B595A795B595A795EA2AFB2A7E
:10099000E072F0E0F595E795F595E795EE2AFF2AE8
:1009A000407150E05595479555954795E42AF52AAD
:1009B000887090E09595879595958795E82AF92A0E
:1009C00062FB002700F910E0E02AF12AA2CF0E9482
:1009D0002F03982E0E942F03A82E0E942F03B12CC4
:1009E000B82AA114B10409F43BCFC12CD12C0DC0FD
:1009F0008E2D0E9428038F2D0E9428034FEFC41ACA
:100A0000D40ACA14DB0409F42BCF892D0E940004F8
:100A10007C01909100019111EBCFC70196958795CC
:100A2000969587950E942803E9CF0E94FA0318CF74
:100A3000C9019E2993702FB7F89490938B008093EF
:100A40008A002FBF0DCFC7019695879596958795FC
:100A50000E94280305CFEE0FFF1F0590F491E02DB3
:100A600009940E945105A59F900DB49F900DA49FDD
:100A7000800D911D112408950024A7FD00942A0FD4
:100A8000301D401D501D601D701D801D901D08955E
:100A90002A153B054C055D056E057F05800791070E
:100AA0000895A29FB001B39FC001A39F700D811D47
:100AB0001124911DB29F700D811D1124911D089567
:040AC000F894FFCFD8
:020AC40001002F
:00000001FF
